{
    "contractName": "HydroVaultContract",
    "abi": [
        {
            "constant": false,
            "inputs": [],
            "name": "unpause",
            "outputs": [],
            "payable": false,
            "stateMutability": "nonpayable",
            "type": "function"
        },
        {
            "constant": true,
            "inputs": [
                {
                    "name": "account",
                    "type": "address"
                }
            ],
            "name": "isPauser",
            "outputs": [
                {
                    "name": "",
                    "type": "bool"
                }
            ],
            "payable": false,
            "stateMutability": "view",
            "type": "function"
        },
        {
            "constant": true,
            "inputs": [
                {
                    "name": "",
                    "type": "address"
                },
                {
                    "name": "",
                    "type": "address"
                }
            ],
            "name": "tokens",
            "outputs": [
                {
                    "name": "",
                    "type": "uint256"
                }
            ],
            "payable": false,
            "stateMutability": "view",
            "type": "function"
        },
        {
            "constant": true,
            "inputs": [],
            "name": "signPrefix",
            "outputs": [
                {
                    "name": "",
                    "type": "string"
                }
            ],
            "payable": false,
            "stateMutability": "view",
            "type": "function"
        },
        {
            "constant": true,
            "inputs": [],
            "name": "paused",
            "outputs": [
                {
                    "name": "",
                    "type": "bool"
                }
            ],
            "payable": false,
            "stateMutability": "view",
            "type": "function"
        },
        {
            "constant": false,
            "inputs": [],
            "name": "renouncePauser",
            "outputs": [],
            "payable": false,
            "stateMutability": "nonpayable",
            "type": "function"
        },
        {
            "constant": false,
            "inputs": [],
            "name": "renounceOwnership",
            "outputs": [],
            "payable": false,
            "stateMutability": "nonpayable",
            "type": "function"
        },
        {
            "constant": true,
            "inputs": [
                {
                    "name": "",
                    "type": "string"
                }
            ],
            "name": "metadata",
            "outputs": [
                {
                    "name": "",
                    "type": "uint256"
                }
            ],
            "payable": false,
            "stateMutability": "view",
            "type": "function"
        },
        {
            "constant": false,
            "inputs": [
                {
                    "name": "account",
                    "type": "address"
                }
            ],
            "name": "addPauser",
            "outputs": [],
            "payable": false,
            "stateMutability": "nonpayable",
            "type": "function"
        },
        {
            "constant": false,
            "inputs": [],
            "name": "pause",
            "outputs": [],
            "payable": false,
            "stateMutability": "nonpayable",
            "type": "function"
        },
        {
            "constant": true,
            "inputs": [],
            "name": "owner",
            "outputs": [
                {
                    "name": "",
                    "type": "address"
                }
            ],
            "payable": false,
            "stateMutability": "view",
            "type": "function"
        },
        {
            "constant": true,
            "inputs": [],
            "name": "isOwner",
            "outputs": [
                {
                    "name": "",
                    "type": "bool"
                }
            ],
            "payable": false,
            "stateMutability": "view",
            "type": "function"
        },
        {
            "constant": true,
            "inputs": [],
            "name": "vaultCount",
            "outputs": [
                {
                    "name": "",
                    "type": "uint256"
                }
            ],
            "payable": false,
            "stateMutability": "view",
            "type": "function"
        },
        {
            "constant": true,
            "inputs": [],
            "name": "transactionCount",
            "outputs": [
                {
                    "name": "",
                    "type": "uint256"
                }
            ],
            "payable": false,
            "stateMutability": "view",
            "type": "function"
        },
        {
            "constant": false,
            "inputs": [
                {
                    "name": "newOwner",
                    "type": "address"
                }
            ],
            "name": "transferOwnership",
            "outputs": [],
            "payable": false,
            "stateMutability": "nonpayable",
            "type": "function"
        },
        {
            "anonymous": false,
            "inputs": [
                {
                    "indexed": true,
                    "name": "userId",
                    "type": "uint256"
                },
                {
                    "indexed": true,
                    "name": "vaultId",
                    "type": "string"
                }
            ],
            "name": "VaultCreated",
            "type": "event"
        },
        {
            "anonymous": false,
            "inputs": [
                {
                    "indexed": false,
                    "name": "token",
                    "type": "address"
                },
                {
                    "indexed": true,
                    "name": "sender",
                    "type": "address"
                },
                {
                    "indexed": false,
                    "name": "amount",
                    "type": "uint256"
                }
            ],
            "name": "Deposit",
            "type": "event"
        },
        {
            "anonymous": false,
            "inputs": [
                {
                    "indexed": false,
                    "name": "token",
                    "type": "address"
                },
                {
                    "indexed": true,
                    "name": "sender",
                    "type": "address"
                },
                {
                    "indexed": false,
                    "name": "amount",
                    "type": "uint256"
                }
            ],
            "name": "Withdraw",
            "type": "event"
        },
        {
            "anonymous": false,
            "inputs": [
                {
                    "indexed": true,
                    "name": "token",
                    "type": "address"
                },
                {
                    "indexed": true,
                    "name": "sender",
                    "type": "address"
                },
                {
                    "indexed": true,
                    "name": "recipient",
                    "type": "address"
                },
                {
                    "indexed": false,
                    "name": "amount",
                    "type": "uint256"
                }
            ],
            "name": "TransferSuccessful",
            "type": "event"
        },
        {
            "anonymous": false,
            "inputs": [
                {
                    "indexed": false,
                    "name": "token",
                    "type": "address"
                },
                {
                    "indexed": true,
                    "name": "sender",
                    "type": "address"
                },
                {
                    "indexed": true,
                    "name": "recipient",
                    "type": "address"
                },
                {
                    "indexed": false,
                    "name": "amount",
                    "type": "uint256"
                }
            ],
            "name": "TransferFailed",
            "type": "event"
        },
        {
            "anonymous": false,
            "inputs": [
                {
                    "indexed": false,
                    "name": "vaultAddress",
                    "type": "address"
                },
                {
                    "indexed": false,
                    "name": "signerAddresses",
                    "type": "address[]"
                },
                {
                    "indexed": false,
                    "name": "maxSigners",
                    "type": "uint256"
                }
            ],
            "name": "signerAdded",
            "type": "event"
        },
        {
            "anonymous": false,
            "inputs": [
                {
                    "indexed": false,
                    "name": "account",
                    "type": "address"
                }
            ],
            "name": "Paused",
            "type": "event"
        },
        {
            "anonymous": false,
            "inputs": [
                {
                    "indexed": false,
                    "name": "account",
                    "type": "address"
                }
            ],
            "name": "Unpaused",
            "type": "event"
        },
        {
            "anonymous": false,
            "inputs": [
                {
                    "indexed": true,
                    "name": "account",
                    "type": "address"
                }
            ],
            "name": "PauserAdded",
            "type": "event"
        },
        {
            "anonymous": false,
            "inputs": [
                {
                    "indexed": true,
                    "name": "account",
                    "type": "address"
                }
            ],
            "name": "PauserRemoved",
            "type": "event"
        },
        {
            "anonymous": false,
            "inputs": [
                {
                    "indexed": true,
                    "name": "previousOwner",
                    "type": "address"
                },
                {
                    "indexed": true,
                    "name": "newOwner",
                    "type": "address"
                }
            ],
            "name": "OwnershipTransferred",
            "type": "event"
        },
        {
            "constant": false,
            "inputs": [
                {
                    "name": "email",
                    "type": "string"
                },
                {
                    "name": "vaultId",
                    "type": "string"
                }
            ],
            "name": "create",
            "outputs": [
                {
                    "name": "",
                    "type": "bool"
                }
            ],
            "payable": false,
            "stateMutability": "nonpayable",
            "type": "function"
        },
        {
            "constant": true,
            "inputs": [
                {
                    "name": "signerAddress",
                    "type": "address"
                }
            ],
            "name": "prefixedHash",
            "outputs": [
                {
                    "name": "",
                    "type": "bytes32"
                }
            ],
            "payable": false,
            "stateMutability": "view",
            "type": "function"
        },
        {
            "constant": true,
            "inputs": [
                {
                    "name": "signerAddress",
                    "type": "address"
                }
            ],
            "name": "checkSigner",
            "outputs": [
                {
                    "name": "",
                    "type": "bool"
                }
            ],
            "payable": false,
            "stateMutability": "view",
            "type": "function"
        },
        {
            "constant": false,
            "inputs": [
                {
                    "name": "signerAddresses",
                    "type": "address[]"
                },
                {
                    "name": "maxSigners",
                    "type": "uint256"
                },
                {
                    "name": "vaultAddress",
                    "type": "address"
                }
            ],
            "name": "addSigners",
            "outputs": [
                {
                    "name": "",
                    "type": "bool"
                }
            ],
            "payable": false,
            "stateMutability": "nonpayable",
            "type": "function"
        },
        {
            "constant": true,
            "inputs": [
                {
                    "name": "signerAddress",
                    "type": "address"
                },
                {
                    "name": "v",
                    "type": "uint8"
                },
                {
                    "name": "r",
                    "type": "bytes32"
                },
                {
                    "name": "s",
                    "type": "bytes32"
                }
            ],
            "name": "isSignatureValid",
            "outputs": [
                {
                    "name": "correct",
                    "type": "bool"
                }
            ],
            "payable": false,
            "stateMutability": "view",
            "type": "function"
        },
        {
            "constant": false,
            "inputs": [
                {
                    "name": "token",
                    "type": "address"
                },
                {
                    "name": "recipient",
                    "type": "address"
                },
                {
                    "name": "value",
                    "type": "uint256"
                },
                {
                    "name": "countedSigners",
                    "type": "uint256"
                },
                {
                    "name": "vaultAddress",
                    "type": "address"
                }
            ],
            "name": "transferTokenMulti",
            "outputs": [
                {
                    "name": "",
                    "type": "bool"
                }
            ],
            "payable": false,
            "stateMutability": "nonpayable",
            "type": "function"
        },
        {
            "constant": false,
            "inputs": [
                {
                    "name": "email",
                    "type": "string"
                },
                {
                    "name": "token",
                    "type": "address"
                },
                {
                    "name": "recipient",
                    "type": "address"
                },
                {
                    "name": "value",
                    "type": "uint256"
                }
            ],
            "name": "transferToken",
            "outputs": [
                {
                    "name": "",
                    "type": "bool"
                }
            ],
            "payable": false,
            "stateMutability": "nonpayable",
            "type": "function"
        },
        {
            "constant": true,
            "inputs": [
                {
                    "name": "token",
                    "type": "address"
                },
                {
                    "name": "vaultAddress",
                    "type": "address"
                }
            ],
            "name": "balanceOf",
            "outputs": [
                {
                    "name": "",
                    "type": "uint256"
                }
            ],
            "payable": false,
            "stateMutability": "view",
            "type": "function"
        },
        {
            "constant": true,
            "inputs": [],
            "name": "numberOfVaults",
            "outputs": [
                {
                    "name": "",
                    "type": "uint256"
                }
            ],
            "payable": false,
            "stateMutability": "view",
            "type": "function"
        },
        {
            "constant": true,
            "inputs": [],
            "name": "numberOfTransactions",
            "outputs": [
                {
                    "name": "",
                    "type": "uint256"
                }
            ],
            "payable": false,
            "stateMutability": "view",
            "type": "function"
        }
    ],
    "bytecode": "0x60806040526040518060400160405280601a81526020017f5369676e656420666f72205661756c74204d756c74697369673a000000000000815250600590805190602001906200005192919062000365565b50336000806101000a81548173ffffffffffffffffffffffffffffffffffffffff021916908373ffffffffffffffffffffffffffffffffffffffff1602179055506000809054906101000a900473ffffffffffffffffffffffffffffffffffffffff1673ffffffffffffffffffffffffffffffffffffffff16600073ffffffffffffffffffffffffffffffffffffffff167f8be0079c531659141344cd1fd0a4f28419497f9722a3daafe3b4186f6b6457e060405160405180910390a36200011f336200014060201b60201c565b6000600260006101000a81548160ff02191690831515021790555062000414565b6200015b816001620001a160201b62002a251790919060201c565b8073ffffffffffffffffffffffffffffffffffffffff167f6719d08c1888103bea251a4ed56406bd0c3e69723c8a1686e017e7bbe159b6f860405160405180910390a250565b620001b382826200028560201b60201c565b1562000227576040517f08c379a000000000000000000000000000000000000000000000000000000000815260040180806020018281038252601f8152602001807f526f6c65733a206163636f756e7420616c72656164792068617320726f6c650081525060200191505060405180910390fd5b60018260000160008373ffffffffffffffffffffffffffffffffffffffff1673ffffffffffffffffffffffffffffffffffffffff16815260200190815260200160002060006101000a81548160ff0219169083151502179055505050565b60008073ffffffffffffffffffffffffffffffffffffffff168273ffffffffffffffffffffffffffffffffffffffff1614156200030e576040517f08c379a0000000000000000000000000000000000000000000000000000000008152600401808060200182810382526022815260200180620030fb6022913960400191505060405180910390fd5b8260000160008373ffffffffffffffffffffffffffffffffffffffff1673ffffffffffffffffffffffffffffffffffffffff16815260200190815260200160002060009054906101000a900460ff16905092915050565b828054600181600116156101000203166002900490600052602060002090601f016020900481019282601f10620003a857805160ff1916838001178555620003d9565b82800160010185558215620003d9579182015b82811115620003d8578251825591602001919060010190620003bb565b5b509050620003e89190620003ec565b5090565b6200041191905b808211156200040d576000816000905550600101620003f3565b5090565b90565b612cd780620004246000396000f3fe608060405234801561001057600080fd5b50600436106101735760003560e01c806382dc1ec4116100de578063a7c6a10011610097578063d4ef60c011610071578063d4ef60c014610937578063f2fde38b14610a54578063f7888aec14610a98578063f8d3afa414610b1057610173565b8063a7c6a1001461084b578063b77bf60014610869578063bb86a7b61461088757610173565b806382dc1ec4146106bc5780638456cb59146107005780638da5cb5b1461070a5780638e594c71146107545780638f32d59b146107d1578063a40f1796146107f357610173565b80636ef8d66d116101305780636ef8d66d14610465578063715018a61461046f5780637a32af78146104795780637ae2f0d2146104975780637f63ca371461059157806380a6dfa0146105ed57610173565b8063198e2b8a146101785780633f4ba83a146102e257806346fbf68e146102ec578063508493bc146103485780635af2800c146103c05780635c975abb14610443575b600080fd5b6102c86004803603604081101561018e57600080fd5b81019080803590602001906401000000008111156101ab57600080fd5b8201836020820111156101bd57600080fd5b803590602001918460018302840111640100000000831117156101df57600080fd5b91908080601f016020809104026020016040519081016040528093929190818152602001838380828437600081840152601f19601f8201169050808301925050505050505091929192908035906020019064010000000081111561024257600080fd5b82018360208201111561025457600080fd5b8035906020019184600183028401116401000000008311171561027657600080fd5b91908080601f016020809104026020016040519081016040528093929190818152602001838380828437600081840152601f19601f820116905080830192505050505050509192919290505050610b2e565b604051808215151515815260200191505060405180910390f35b6102ea610dbd565b005b61032e6004803603602081101561030257600080fd5b81019080803573ffffffffffffffffffffffffffffffffffffffff169060200190929190505050610f1d565b604051808215151515815260200191505060405180910390f35b6103aa6004803603604081101561035e57600080fd5b81019080803573ffffffffffffffffffffffffffffffffffffffff169060200190929190803573ffffffffffffffffffffffffffffffffffffffff169060200190929190505050610f3a565b6040518082815260200191505060405180910390f35b6103c8610f5f565b6040518080602001828103825283818151815260200191508051906020019080838360005b838110156104085780820151818401526020810190506103ed565b50505050905090810190601f1680156104355780820380516001836020036101000a031916815260200191505b509250505060405180910390f35b61044b610ffd565b604051808215151515815260200191505060405180910390f35b61046d611014565b005b61047761101f565b005b610481611158565b6040518082815260200191505060405180910390f35b610577600480360360608110156104ad57600080fd5b81019080803590602001906401000000008111156104ca57600080fd5b8201836020820111156104dc57600080fd5b803590602001918460208302840111640100000000831117156104fe57600080fd5b919080806020026020016040519081016040528093929190818152602001838360200280828437600081840152601f19601f82011690508083019250505050505050919291929080359060200190929190803573ffffffffffffffffffffffffffffffffffffffff169060200190929190505050611162565b604051808215151515815260200191505060405180910390f35b6105d3600480360360208110156105a757600080fd5b81019080803573ffffffffffffffffffffffffffffffffffffffff16906020019092919050505061132c565b604051808215151515815260200191505060405180910390f35b6106a66004803603602081101561060357600080fd5b810190808035906020019064010000000081111561062057600080fd5b82018360208201111561063257600080fd5b8035906020019184600183028401116401000000008311171561065457600080fd5b91908080601f016020809104026020016040519081016040528093929190818152602001838380828437600081840152601f19601f8201169050808301925050505050505091929192905050506113bf565b6040518082815260200191505060405180910390f35b6106fe600480360360208110156106d257600080fd5b81019080803573ffffffffffffffffffffffffffffffffffffffff1690602001909291905050506113ed565b005b610708611457565b005b6107126115b8565b604051808273ffffffffffffffffffffffffffffffffffffffff1673ffffffffffffffffffffffffffffffffffffffff16815260200191505060405180910390f35b6107b76004803603608081101561076a57600080fd5b81019080803573ffffffffffffffffffffffffffffffffffffffff169060200190929190803560ff16906020019092919080359060200190929190803590602001909291905050506115e1565b604051808215151515815260200191505060405180910390f35b6107d961179e565b604051808215151515815260200191505060405180910390f35b6108356004803603602081101561080957600080fd5b81019080803573ffffffffffffffffffffffffffffffffffffffff1690602001909291905050506117f5565b6040518082815260200191505060405180910390f35b6108536118ec565b6040518082815260200191505060405180910390f35b6108716118f2565b6040518082815260200191505060405180910390f35b61091d600480360360a081101561089d57600080fd5b81019080803573ffffffffffffffffffffffffffffffffffffffff169060200190929190803573ffffffffffffffffffffffffffffffffffffffff1690602001909291908035906020019092919080359060200190929190803573ffffffffffffffffffffffffffffffffffffffff1690602001909291905050506118f8565b604051808215151515815260200191505060405180910390f35b610a3a6004803603608081101561094d57600080fd5b810190808035906020019064010000000081111561096a57600080fd5b82018360208201111561097c57600080fd5b8035906020019184600183028401116401000000008311171561099e57600080fd5b91908080601f016020809104026020016040519081016040528093929190818152602001838380828437600081840152601f19601f820116905080830192505050505050509192919290803573ffffffffffffffffffffffffffffffffffffffff169060200190929190803573ffffffffffffffffffffffffffffffffffffffff16906020019092919080359060200190929190505050611dbc565b604051808215151515815260200191505060405180910390f35b610a9660048036036020811015610a6a57600080fd5b81019080803573ffffffffffffffffffffffffffffffffffffffff16906020019092919050505061231b565b005b610afa60048036036040811015610aae57600080fd5b81019080803573ffffffffffffffffffffffffffffffffffffffff169060200190929190803573ffffffffffffffffffffffffffffffffffffffff1690602001909291905050506123a1565b6040518082815260200191505060405180910390f35b610b18612505565b6040518082815260200191505060405180910390f35b600080600190506000610b408561250f565b905060096000828152602001908152602001600020846040518082805190602001908083835b60208310610b895780518252602082019150602081019050602083039250610b66565b6001836020036101000a038019825116818451168082178552505050505050905001915050908152602001604051809103902060010160009054906101000a900460ff1615610c40576040517f08c379a00000000000000000000000000000000000000000000000000000000081526004018080602001828103825260148152602001807f5661756c7420616c72656164792065786973747300000000000000000000000081525060200191505060405180910390fd5b604051806040016040528085815260200183151581525060096000838152602001908152602001600020856040518082805190602001908083835b60208310610c9e5780518252602082019150602081019050602083039250610c7b565b6001836020036101000a03801982511681845116808217855250505050505090500191505090815260200160405180910390206000820151816000019080519060200190610ced929190612b00565b5060208201518160010160006101000a81548160ff021916908315150217905550905050600360008154809291906001019190505550836040518082805190602001908083835b60208310610d575780518252602082019150602081019050602083039250610d34565b6001836020036101000a0380198251168184511680821785525050505050509050019150506040518091039020817f4e95aa5f76368e076fe6f8b59e9e13f3869daf187b349eda7fb70981d8fcf78060405160405180910390a360019250505092915050565b610dc633610f1d565b610e1b576040517f08c379a0000000000000000000000000000000000000000000000000000000008152600401808060200182810382526030815260200180612ba66030913960400191505060405180910390fd5b600260009054906101000a900460ff16610e9d576040517f08c379a00000000000000000000000000000000000000000000000000000000081526004018080602001828103825260148152602001807f5061757361626c653a206e6f742070617573656400000000000000000000000081525060200191505060405180910390fd5b6000600260006101000a81548160ff0219169083151502179055507f5db9ee0a495bf2e6ff9c91a7834c1ba4fdd244a5e8aa4e537bd38aeae4b073aa33604051808273ffffffffffffffffffffffffffffffffffffffff1673ffffffffffffffffffffffffffffffffffffffff16815260200191505060405180910390a1565b6000610f3382600161267890919063ffffffff16565b9050919050565b6006602052816000526040600020602052806000526040600020600091509150505481565b60058054600181600116156101000203166002900480601f016020809104026020016040519081016040528092919081815260200182805460018160011615610100020316600290048015610ff55780601f10610fca57610100808354040283529160200191610ff5565b820191906000526020600020905b815481529060010190602001808311610fd857829003601f168201915b505050505081565b6000600260009054906101000a900460ff16905090565b61101d33612756565b565b61102761179e565b611099576040517f08c379a00000000000000000000000000000000000000000000000000000000081526004018080602001828103825260208152602001807f4f776e61626c653a2063616c6c6572206973206e6f7420746865206f776e657281525060200191505060405180910390fd5b600073ffffffffffffffffffffffffffffffffffffffff166000809054906101000a900473ffffffffffffffffffffffffffffffffffffffff1673ffffffffffffffffffffffffffffffffffffffff167f8be0079c531659141344cd1fd0a4f28419497f9722a3daafe3b4186f6b6457e060405160405180910390a360008060006101000a81548173ffffffffffffffffffffffffffffffffffffffff021916908373ffffffffffffffffffffffffffffffffffffffff160217905550565b6000600354905090565b600080600090505b8451811015611228576001600a60008573ffffffffffffffffffffffffffffffffffffffff1673ffffffffffffffffffffffffffffffffffffffff16815260200190815260200160002060008784815181106111c257fe5b602002602001015173ffffffffffffffffffffffffffffffffffffffff1673ffffffffffffffffffffffffffffffffffffffff16815260200190815260200160002060006101000a81548160ff021916908315150217905550808060010191505061116a565b5082600b60008473ffffffffffffffffffffffffffffffffffffffff1673ffffffffffffffffffffffffffffffffffffffff168152602001908152602001600020819055507f7677e3c2af5ec17376a8fd1e35bca00c284055502dc22e8c865100abc704a759828585604051808473ffffffffffffffffffffffffffffffffffffffff1673ffffffffffffffffffffffffffffffffffffffff16815260200180602001838152602001828103825284818151815260200191508051906020019060200280838360005b8381101561130c5780820151818401526020810190506112f1565b5050505090500194505050505060405180910390a1600190509392505050565b6000600a60003373ffffffffffffffffffffffffffffffffffffffff1673ffffffffffffffffffffffffffffffffffffffff16815260200190815260200160002060008373ffffffffffffffffffffffffffffffffffffffff1673ffffffffffffffffffffffffffffffffffffffff16815260200190815260200160002060009054906101000a900460ff169050919050565b6008818051602081018201805184825260208301602085012081835280955050505050506000915090505481565b6113f633610f1d565b61144b576040517f08c379a0000000000000000000000000000000000000000000000000000000008152600401808060200182810382526030815260200180612ba66030913960400191505060405180910390fd5b611454816127b0565b50565b61146033610f1d565b6114b5576040517f08c379a0000000000000000000000000000000000000000000000000000000008152600401808060200182810382526030815260200180612ba66030913960400191505060405180910390fd5b600260009054906101000a900460ff1615611538576040517f08c379a00000000000000000000000000000000000000000000000000000000081526004018080602001828103825260108152602001807f5061757361626c653a207061757365640000000000000000000000000000000081525060200191505060405180910390fd5b6001600260006101000a81548160ff0219169083151502179055507f62e78cea01bee320cd4e420270b5ea74000d11b0c9f74754ebdbfc544b05a25833604051808273ffffffffffffffffffffffffffffffffffffffff1673ffffffffffffffffffffffffffffffffffffffff16815260200191505060405180910390a1565b60008060009054906101000a900473ffffffffffffffffffffffffffffffffffffffff16905090565b60008033905060011515600a60008373ffffffffffffffffffffffffffffffffffffffff1673ffffffffffffffffffffffffffffffffffffffff16815260200190815260200160002060008873ffffffffffffffffffffffffffffffffffffffff1673ffffffffffffffffffffffffffffffffffffffff16815260200190815260200160002060009054906101000a900460ff161515146116ea576040517f08c379a000000000000000000000000000000000000000000000000000000000815260040180806020018281038252601e8152602001807f596f7520646f6e277420686176652074686973207065726d697373696f6e000081525060200191505060405180910390fd5b60006116f5876117f5565b9050600060018288888860405160008152602001604052604051808581526020018460ff1660ff1681526020018381526020018281526020019450505050506020604051602081039080840390855afa158015611756573d6000803e3d6000fd5b5050506020604051035190508773ffffffffffffffffffffffffffffffffffffffff168173ffffffffffffffffffffffffffffffffffffffff16149350505050949350505050565b60008060009054906101000a900473ffffffffffffffffffffffffffffffffffffffff1673ffffffffffffffffffffffffffffffffffffffff163373ffffffffffffffffffffffffffffffffffffffff1614905090565b60008060053084604051602001808480546001816001161561010002031660029004801561185a5780601f1061183857610100808354040283529182019161185a565b820191906000526020600020905b815481529060010190602001808311611846575b50508373ffffffffffffffffffffffffffffffffffffffff1673ffffffffffffffffffffffffffffffffffffffff1660601b81526014018273ffffffffffffffffffffffffffffffffffffffff1673ffffffffffffffffffffffffffffffffffffffff1660601b8152601401935050505060405160208183030381529060405280519060200120905080915050919050565b60035481565b60045481565b6000600260009054906101000a900460ff161561197d576040517f08c379a00000000000000000000000000000000000000000000000000000000081526004018080602001828103825260108152602001807f5061757361626c653a207061757365640000000000000000000000000000000081525060200191505060405180910390fd5b600082905083600b60008373ffffffffffffffffffffffffffffffffffffffff1673ffffffffffffffffffffffffffffffffffffffff1681526020019081526020016000205414611a19576040517f08c379a0000000000000000000000000000000000000000000000000000000008152600401808060200182810382526026815260200180612c646026913960400191505060405180910390fd5b8673ffffffffffffffffffffffffffffffffffffffff1663dd62ed3e82306040518363ffffffff1660e01b8152600401808373ffffffffffffffffffffffffffffffffffffffff1673ffffffffffffffffffffffffffffffffffffffff1681526020018273ffffffffffffffffffffffffffffffffffffffff1673ffffffffffffffffffffffffffffffffffffffff1681526020019250505060206040518083038186803b158015611aca57600080fd5b505afa158015611ade573d6000803e3d6000fd5b505050506040513d6020811015611af457600080fd5b8101908080519060200190929190505050851115611bf6578573ffffffffffffffffffffffffffffffffffffffff168173ffffffffffffffffffffffffffffffffffffffff167fcd3f165985b63ac3907d23a28d093bfbd486cad8bcb1c454a4efb5e526bb2e4d8988604051808373ffffffffffffffffffffffffffffffffffffffff1673ffffffffffffffffffffffffffffffffffffffff1681526020018281526020019250505060405180910390a36040517f08c379a0000000000000000000000000000000000000000000000000000000008152600401808060200182810382526047815260200180612bfc6047913960600191505060405180910390fd5b8673ffffffffffffffffffffffffffffffffffffffff166323b872dd8288886040518463ffffffff1660e01b8152600401808473ffffffffffffffffffffffffffffffffffffffff1673ffffffffffffffffffffffffffffffffffffffff1681526020018373ffffffffffffffffffffffffffffffffffffffff1673ffffffffffffffffffffffffffffffffffffffff1681526020018281526020019350505050602060405180830381600087803b158015611cb157600080fd5b505af1158015611cc5573d6000803e3d6000fd5b505050506040513d6020811015611cdb57600080fd5b8101908080519060200190929190505050506000600c60008373ffffffffffffffffffffffffffffffffffffffff1673ffffffffffffffffffffffffffffffffffffffff168152602001908152602001600020819055508573ffffffffffffffffffffffffffffffffffffffff168173ffffffffffffffffffffffffffffffffffffffff168873ffffffffffffffffffffffffffffffffffffffff167fe52f430cff600a2339227eeb7e146d19d52ef237282b08b88b4b4d3cfb790282886040518082815260200191505060405180910390a4600191505095945050505050565b6000600260009054906101000a900460ff1615611e41576040517f08c379a00000000000000000000000000000000000000000000000000000000081526004018080602001828103825260108152602001807f5061757361626c653a207061757365640000000000000000000000000000000081525060200191505060405180910390fd5b60003390508473ffffffffffffffffffffffffffffffffffffffff1663dd62ed3e82306040518363ffffffff1660e01b8152600401808373ffffffffffffffffffffffffffffffffffffffff1673ffffffffffffffffffffffffffffffffffffffff1681526020018273ffffffffffffffffffffffffffffffffffffffff1673ffffffffffffffffffffffffffffffffffffffff1681526020019250505060206040518083038186803b158015611ef757600080fd5b505afa158015611f0b573d6000803e3d6000fd5b505050506040513d6020811015611f2157600080fd5b8101908080519060200190929190505050831115612023578373ffffffffffffffffffffffffffffffffffffffff168173ffffffffffffffffffffffffffffffffffffffff167fcd3f165985b63ac3907d23a28d093bfbd486cad8bcb1c454a4efb5e526bb2e4d8786604051808373ffffffffffffffffffffffffffffffffffffffff1673ffffffffffffffffffffffffffffffffffffffff1681526020018281526020019250505060405180910390a36040517f08c379a0000000000000000000000000000000000000000000000000000000008152600401808060200182810382526047815260200180612bfc6047913960600191505060405180910390fd5b600061202e8761250f565b90508573ffffffffffffffffffffffffffffffffffffffff166323b872dd8387876040518463ffffffff1660e01b8152600401808473ffffffffffffffffffffffffffffffffffffffff1673ffffffffffffffffffffffffffffffffffffffff1681526020018373ffffffffffffffffffffffffffffffffffffffff1673ffffffffffffffffffffffffffffffffffffffff1681526020018281526020019350505050602060405180830381600087803b1580156120eb57600080fd5b505af11580156120ff573d6000803e3d6000fd5b505050506040513d602081101561211557600080fd5b81019080805190602001909291905050505060405180608001604052808773ffffffffffffffffffffffffffffffffffffffff1681526020018373ffffffffffffffffffffffffffffffffffffffff1681526020018673ffffffffffffffffffffffffffffffffffffffff168152602001858152506007600083815260200190815260200160002060008201518160000160006101000a81548173ffffffffffffffffffffffffffffffffffffffff021916908373ffffffffffffffffffffffffffffffffffffffff16021790555060208201518160010160006101000a81548173ffffffffffffffffffffffffffffffffffffffff021916908373ffffffffffffffffffffffffffffffffffffffff16021790555060408201518160020160006101000a81548173ffffffffffffffffffffffffffffffffffffffff021916908373ffffffffffffffffffffffffffffffffffffffff160217905550606082015181600301559050506004600081548092919060010191905055508473ffffffffffffffffffffffffffffffffffffffff168273ffffffffffffffffffffffffffffffffffffffff168773ffffffffffffffffffffffffffffffffffffffff167fe52f430cff600a2339227eeb7e146d19d52ef237282b08b88b4b4d3cfb790282876040518082815260200191505060405180910390a4600192505050949350505050565b61232361179e565b612395576040517f08c379a00000000000000000000000000000000000000000000000000000000081526004018080602001828103825260208152602001807f4f776e61626c653a2063616c6c6572206973206e6f7420746865206f776e657281525060200191505060405180910390fd5b61239e8161280a565b50565b60008073ffffffffffffffffffffffffffffffffffffffff168373ffffffffffffffffffffffffffffffffffffffff161415612445576040517f08c379a000000000000000000000000000000000000000000000000000000000815260040180806020018281038252601c8152602001807f546f6b656e20416464726573732063616e6e6f74206265207a65726f0000000081525060200191505060405180910390fd5b8273ffffffffffffffffffffffffffffffffffffffff166370a08231836040518263ffffffff1660e01b8152600401808273ffffffffffffffffffffffffffffffffffffffff1673ffffffffffffffffffffffffffffffffffffffff16815260200191505060206040518083038186803b1580156124c257600080fd5b505afa1580156124d6573d6000803e3d6000fd5b505050506040513d60208110156124ec57600080fd5b8101908080519060200190929190505050905092915050565b6000600454905090565b60008061251b8361294e565b905060006008846040518082805190602001908083835b602083106125555780518252602082019150602081019050602083039250612532565b6001836020036101000a03801982511681845116808217855250505050505090500191505090815260200160405180910390205414612600576008836040518082805190602001908083835b602083106125c457805182526020820191506020810190506020830392506125a1565b6001836020036101000a038019825116818451168082178552505050505050905001915050908152602001604051809103902054915050612673565b806008846040518082805190602001908083835b602083106126375780518252602082019150602081019050602083039250612614565b6001836020036101000a038019825116818451168082178552505050505050905001915050908152602001604051809103902081905550809150505b919050565b60008073ffffffffffffffffffffffffffffffffffffffff168273ffffffffffffffffffffffffffffffffffffffff1614156126ff576040517f08c379a0000000000000000000000000000000000000000000000000000000008152600401808060200182810382526022815260200180612c8a6022913960400191505060405180910390fd5b8260000160008373ffffffffffffffffffffffffffffffffffffffff1673ffffffffffffffffffffffffffffffffffffffff16815260200190815260200160002060009054906101000a900460ff16905092915050565b61276a81600161296890919063ffffffff16565b8073ffffffffffffffffffffffffffffffffffffffff167fcd265ebaf09df2871cc7bd4133404a235ba12eff2041bb89d9c714a2621c7c7e60405160405180910390a250565b6127c4816001612a2590919063ffffffff16565b8073ffffffffffffffffffffffffffffffffffffffff167f6719d08c1888103bea251a4ed56406bd0c3e69723c8a1686e017e7bbe159b6f860405160405180910390a250565b600073ffffffffffffffffffffffffffffffffffffffff168173ffffffffffffffffffffffffffffffffffffffff161415612890576040517f08c379a0000000000000000000000000000000000000000000000000000000008152600401808060200182810382526026815260200180612bd66026913960400191505060405180910390fd5b8073ffffffffffffffffffffffffffffffffffffffff166000809054906101000a900473ffffffffffffffffffffffffffffffffffffffff1673ffffffffffffffffffffffffffffffffffffffff167f8be0079c531659141344cd1fd0a4f28419497f9722a3daafe3b4186f6b6457e060405160405180910390a3806000806101000a81548173ffffffffffffffffffffffffffffffffffffffff021916908373ffffffffffffffffffffffffffffffffffffffff16021790555050565b60006060829050808051906020012060001c915050919050565b6129728282612678565b6129c7576040517f08c379a0000000000000000000000000000000000000000000000000000000008152600401808060200182810382526021815260200180612c436021913960400191505060405180910390fd5b60008260000160008373ffffffffffffffffffffffffffffffffffffffff1673ffffffffffffffffffffffffffffffffffffffff16815260200190815260200160002060006101000a81548160ff0219169083151502179055505050565b612a2f8282612678565b15612aa2576040517f08c379a000000000000000000000000000000000000000000000000000000000815260040180806020018281038252601f8152602001807f526f6c65733a206163636f756e7420616c72656164792068617320726f6c650081525060200191505060405180910390fd5b60018260000160008373ffffffffffffffffffffffffffffffffffffffff1673ffffffffffffffffffffffffffffffffffffffff16815260200190815260200160002060006101000a81548160ff0219169083151502179055505050565b828054600181600116156101000203166002900490600052602060002090601f016020900481019282601f10612b4157805160ff1916838001178555612b6f565b82800160010185558215612b6f579182015b82811115612b6e578251825591602001919060010190612b53565b5b509050612b7c9190612b80565b5090565b612ba291905b80821115612b9e576000816000905550600101612b86565b5090565b9056fe506175736572526f6c653a2063616c6c657220646f6573206e6f742068617665207468652050617573657220726f6c654f776e61626c653a206e6577206f776e657220697320746865207a65726f206164647265737356616c7565206f6620746f6b656e7320746f207472616e736665722063616e6e6f742062652067726561746572207468616e20617070726f76656420746f6b656e2076616c7565526f6c65733a206163636f756e7420646f6573206e6f74206861766520726f6c65546865206e756d626572206f66207369676e657273206973206e6f742066756c66696c6c6564526f6c65733a206163636f756e7420697320746865207a65726f2061646472657373a165627a7a72305820e06c0221e443dc6cca6c82d009c84a7a9adf8491f6bbc70431137114257ffd640029526f6c65733a206163636f756e7420697320746865207a65726f2061646472657373",
    "source": "pragma solidity ^0.5.7;\n\nimport \"../node_modules/openzeppelin-solidity/contracts/ownership/Ownable.sol\";\nimport \"../node_modules/openzeppelin-solidity/contracts/lifecycle/Pausable.sol\";\n\n\ncontract Token {\n    bytes32 public name;\n    bytes32 public symbol;\n    uint256 public totalSupply;\n    uint8 public decimals;\n    mapping(address => uint256) public balanceOf;\n    mapping(address => mapping(address => uint256)) public allowance;\n    function transfer(address _to, uint256 _value)\n        public\n        returns (bool success);\n    function approve(address _spender, uint256 _value)\n        public\n        returns (bool success);\n    function transferFrom(address _from, address _to, uint256 _value)\n        public\n        returns (bool success);\n}\n\ncontract HydroVaultContract is Ownable, Pausable {\n\n    struct Vault {\n        string vaultId;\n        bool exists;\n    }\n\n    struct Transactions {\n        address token;\n        address sender;\n        address recipient;\n        uint256 amount;\n    }\n    uint256 public vaultCount;\n    uint256 public transactionCount;\n\n    string public signPrefix = \"Signed for Vault Multisig:\";\n\n    mapping(address => mapping(address => uint256)) public tokens; //mapping of token addresses to mapping of account balances\n    mapping(uint256 => Transactions) transactions;\n    mapping(string => uint256) public metadata;\n    mapping(uint256 => mapping(string => Vault)) private vault;\n    mapping(address => mapping(address => bool)) private signers; \n    mapping(address => uint256) private numberOfSigners;\n    mapping(address => uint256) private countSigners;\n\n    event VaultCreated(uint256 indexed userId, string indexed vaultId);\n    event Deposit(address token, address indexed sender, uint256 amount);\n    event Withdraw(address token, address indexed sender, uint256 amount);\n    event TransferSuccessful(\n        address indexed token,\n        address indexed sender,\n        address indexed recipient,\n        uint256 amount\n    );\n    event TransferFailed(\n        address token,\n        address indexed sender,\n        address indexed recipient,\n        uint256 amount\n    );\n    event signerAdded(address vaultAddress, address[] signerAddresses, uint256 maxSigners);\n\n    function mintId(string memory email) internal pure returns (uint256) {\n        bytes memory emailBytes = bytes(email);\n        return uint256(keccak256(emailBytes));\n    }\n    function checkEmail(string memory email) internal returns (uint256) {\n        uint256 userId = mintId(email);\n        //check if the user's email is mapped already\n        if (metadata[email] != 0) {\n            return metadata[email];\n        } else {\n            metadata[email] = userId;\n            return userId;\n        }\n    }\n\n    function create(string memory email, string memory vaultId)\n        public\n        returns (bool)\n    {\n        bool exists = true;\n        uint256 userId = checkEmail(email);\n        require(!vault[userId][vaultId].exists, \"Vault already exists\");\n        vault[userId][vaultId] = Vault(vaultId, exists);\n        vaultCount++;\n        emit VaultCreated(userId, vaultId);\n        return true;\n    }\n\n    function prefixedHash(\n        address signerAddress\n    ) public view returns(bytes32) {\n        bytes32 hash = keccak256(\n          abi.encodePacked(\n            signPrefix,\n            address(this),\n            signerAddress)\n        );\n        return hash;\n    }\n\n  function checkSigner(address signerAddress) public view returns (bool){\n      return signers[msg.sender][signerAddress];\n  }\n\n//   function addSigners(address[] memory signerAddresses, uint256 maxSigners) public returns(bool) {\n//     for (uint i=0; i<signerAddresses.length; i++) {\n//           signers[msg.sender][signerAddresses[i]] = true;\n//       }\n//       numberOfSigners[msg.sender] = maxSigners;\n//       emit signerAdded(msg.sender, signerAddresses, maxSigners);\n//       return true;\n//   }\n\nfunction addSigners(address[] memory signerAddresses, uint256 maxSigners, address vaultAddress) public returns(bool) {\n    for (uint i=0; i<signerAddresses.length; i++) {\n          signers[vaultAddress][signerAddresses[i]] = true;\n      }\n      numberOfSigners[vaultAddress] = maxSigners;\n      emit signerAdded(vaultAddress, signerAddresses, maxSigners);\n      return true;\n  }\n\n//   function isSignatureValid(\n//         address signerAddress,\n//         uint8 v,\n//         bytes32 r,\n//         bytes32 s\n//         ) public view returns (bool correct) {\n//         require(signers[msg.sender][signerAddress] == true, \"You don't have this permission\");\n//         bytes32 mustBeSigned = prefixedHash(signerAddress);\n//         address signer = ecrecover(\n//             mustBeSigned,\n//             v, r, s\n//         );\n//         // countSigners[msg.sender]++;\n//         return (signer == signerAddress);\n//     }\n\n    // function isSignatureValid(\n    //     address signerAddress,\n    //     uint8 v,\n    //     bytes32 r,\n    //     bytes32 s\n    //     ) public view returns (bool correct) {\n    //     address sender = msg.sender;\n    //     require(signers[sender][signerAddress] == true, \"You don't have this permission\");\n    //     bytes32 mustBeSigned = prefixedHash(signerAddress);\n    //     address signer = ecrecover(\n    //         mustBeSigned,\n    //         v, r, s\n    //     );\n    //     return (signer == signerAddress);\n    // }\n\n    function isSignatureValid(\n        address signerAddress,\n        uint8 v,\n        bytes32 r,\n        bytes32 s\n        ) public view returns (bool correct) {\n        address vaultAddress = msg.sender;\n        require(signers[vaultAddress][signerAddress] == true, \"You don't have this permission\");\n        bytes32 mustBeSigned = prefixedHash(signerAddress);\n        address signer = ecrecover(\n            mustBeSigned,\n            v, r, s\n        );\n        return (signer == signerAddress);\n    }\n\n\n\n//   function transferTokenMulti(\n//         address token,\n//         address recipient,\n//         uint256 value,\n//         uint256 countedSigners\n//     ) public whenNotPaused returns (bool) {\n//         address sender = msg.sender;\n//         require(numberOfSigners[sender] == countedSigners, \"The number of signers is not fulfilled\");\n//         if (value > Token(token).allowance(sender, address(this))) {\n//             emit TransferFailed(token, sender, recipient, value);\n//             revert(\n//                 \"Value of tokens to transfer cannot be greater than approved token value\"\n//             );\n//         }\n//         Token(token).transferFrom(sender, recipient, value);\n//         countSigners[sender] = 0;\n//         emit TransferSuccessful(token, sender, recipient, value);\n//         return true;\n//     }\n\nfunction transferTokenMulti(\n        address token,\n        address recipient,\n        uint256 value,\n        uint256 countedSigners,\n        address vaultAddress\n    ) public whenNotPaused returns (bool) {\n        address sender = vaultAddress;\n        require(numberOfSigners[sender] == countedSigners, \"The number of signers is not fulfilled\");\n        if (value > Token(token).allowance(sender, address(this))) {\n            emit TransferFailed(token, sender, recipient, value);\n            revert(\n                \"Value of tokens to transfer cannot be greater than approved token value\"\n            );\n        }\n        Token(token).transferFrom(sender, recipient, value);\n        countSigners[sender] = 0;\n        emit TransferSuccessful(token, sender, recipient, value);\n        return true;\n    }\n\n    function transferToken(\n        string memory email,\n        address token,\n        address recipient,\n        uint256 value\n    ) public whenNotPaused returns (bool) {\n        address sender = msg.sender;\n        if (value > Token(token).allowance(sender, address(this))) {\n            emit TransferFailed(token, sender, recipient, value);\n            revert(\n                \"Value of tokens to transfer cannot be greater than approved token value\"\n            );\n        }\n        uint256 userId = checkEmail(email);\n        Token(token).transferFrom(sender, recipient, value);\n        transactions[userId] = Transactions(token, sender, recipient, value);\n        transactionCount++;\n        emit TransferSuccessful(token, sender, recipient, value);\n        return true;\n    }\n\n    function balanceOf(address token, address vaultAddress)\n        public\n        view\n        returns (uint256)\n    {\n        require(token != address(0), \"Token Address cannot be zero\");\n        return Token(token).balanceOf(vaultAddress);\n    }\n\n    function numberOfVaults() public view returns (uint256) {\n        return vaultCount;\n    }\n\n    function numberOfTransactions() public view returns (uint256) {\n        return transactionCount;\n    }\n}\n",
    "sourcePath": "/Users/macintoshhd/Documents/works/ProjectHydro/hydro-vault-contract/contracts/HydroVaultContract.sol",
    "compiler": {
        "name": "solc",
        "version": "0.5.8+commit.23d335f2.Emscripten.clang"
    },
    "schemaVersion": "3.0.11",
    "updatedAt": "2020-01-14T17:13:37.144Z",
    "devdoc": {
        "methods": {
            "isOwner()": {
                "details": "Returns true if the caller is the current owner."
            },
            "owner()": {
                "details": "Returns the address of the current owner."
            },
            "pause()": {
                "details": "Called by a pauser to pause, triggers stopped state."
            },
            "paused()": {
                "details": "Returns true if the contract is paused, and false otherwise."
            },
            "renounceOwnership()": {
                "details": "Leaves the contract without owner. It will not be possible to call `onlyOwner` functions anymore. Can only be called by the current owner.     * > Note: Renouncing ownership will leave the contract without an owner, thereby removing any functionality that is only available to the owner."
            },
            "transferOwnership(address)": {
                "details": "Transfers ownership of the contract to a new account (`newOwner`). Can only be called by the current owner."
            },
            "unpause()": {
                "details": "Called by a pauser to unpause, returns to normal state."
            }
        }
    },
    "userdoc": {
        "methods": {}
    }
}